:020000040800F2
:10000000005000208D1C0008CD180008D3180008EF
:10001000D9180008DF180008E518000800000000E3
:10002000000000000000000000000000EB180008C5
:10003000F718000800000000031900080F19000855
:10004000D51C0008D51C0008D51C0008D51C0008CC
:10005000D51C0008D51C0008D51C0008D51C0008BC
:10006000D51C0008D51C0008D51C0008D51C0008AC
:10007000D51C0008D51C0008D51C0008D51C00089C
:10008000D51C0008D51C0008D51C0008D51C00088C
:10009000D51C0008D51C0008D51C0008D51C00087C
:1000A000D51C0008D51C0008D51C0008D51C00086C
:1000B000D51C00081D190008D51C0008D51C000817
:1000C000D51C0008D51C0008D51C0008D51C00084C
:1000D000D51C0008D51C0008D51C0008D51C00083C
:1000E000D51C0008D51C0008D51C00080000000025
:1000F0000000000000000000000000000000000000
:0C01000000000000000000005FF808F1A3
:1001100010B5054C237833B9044B13B10448AFF341
:1001200000800123237010BDE001002000000000CA
:10013000AC86000808B5034B1BB103490348AFF375
:10014000008008BD00000000E4010020AC8600082B
:10015000034613F8012B002AFBD1181A0138704707
:1001600081F0004102E000BF83F0004330B54FEA68
:1001700041044FEA430594EA050F08BF90EA020FD5
:100180001FBF54EA000C55EA020C7FEA645C7FEA68
:10019000655C00F0E2804FEA5454D4EB5555B8BF8B
:1001A0006D420CDD2C4480EA020281EA030382EAFC
:1001B000000083EA010180EA020281EA0303362D8E
:1001C00088BF30BD11F0004F4FEA01314FF4801C61
:1001D0004CEA113102D0404261EB410113F0004F73
:1001E0004FEA03334CEA133302D0524263EB43032A
:1001F00094EA050F00F0A780A4F10104D5F1200EC8
:100200000DDB02FA0EFC22FA05F2801841F1000122
:1002100003FA0EF2801843FA05F359410EE0A5F1F6
:1002200020050EF1200E012A03FA0EFC28BF4CF027
:10023000020C43FA05F3C01851EBE37101F00045DD
:1002400007D54FF0000EDCF1000C7EEB00006EEBEA
:100250000101B1F5801F1BD3B1F5001F0CD3490874
:100260005FEA30004FEA3C0C04F101044FEA4452CB
:1002700012F5800F80F09A80BCF1004F08BF5FEA52
:10028000500C50F1000041EB045141EA050130BD32
:100290005FEA4C0C404141EB0101013C28BFB1F544
:1002A000801FE9D291F0000F04BF01460020B1FA8F
:1002B00081F308BF2033A3F10B03B3F120020CDA62
:1002C0000C3208DD02F1140CC2F10C0201FA0CF040
:1002D00021FA02F10CE002F11402D8BFC2F1200CA5
:1002E00001FA02F120FA0CFCDCBF41EA0C0190405B
:1002F000E41AA2BF01EB0451294330BD6FEA0404A4
:100300001F3C1CDA0C340EDC04F11404C4F120028E
:1003100020FA04F001FA02F340EA030021FA04F3A0
:1003200045EA030130BDC4F10C04C4F1200220FAF7
:1003300002F001FA04F340EA0300294630BD21FA35
:1003400004F0294630BD94F0000F83F4801306BFFB
:1003500081F480110134013D4EE77FEA645C18BFEF
:100360007FEA655C29D094EA050F08BF90EA020F86
:1003700005D054EA000C04BF1946104630BD91EA7E
:10038000030F1EBF0021002030BD5FEA545C05D181
:100390004000494128BF41F0004130BD14F58004C0
:1003A0003CBF01F5801130BD01F0004545F0FE4134
:1003B00041F470014FF0000030BD7FEA645C1ABF69
:1003C000194610467FEA655C1CBF0B46024650EAA0
:1003D000013406BF52EA033591EA030F41F40021CC
:1003E00030BD00BF90F0000F04BF0021704730B552
:1003F0004FF4806404F132044FF000054FF0000127
:1004000050E700BF90F0000F04BF0021704730B5E7
:100410004FF4806404F1320410F0004548BF4042BC
:100420004FF000013EE700BF42004FEAE2014FEA11
:1004300031014FEA02701FBF12F07F4393F07F4FEC
:1004400081F06051704732F07F4208BF704793F0EF
:100450007F4F04BF41F40021704730B54FF4607402
:1004600001F0004521F000411CE700BF50EA010205
:1004700008BF704730B54FF000050AE050EA0102AE
:1004800008BF704730B511F0004502D5404261EB1E
:1004900041014FF4806404F132045FEA915C3FF45F
:1004A000D8AE4FF003025FEADC0C18BF03325FEAFC
:1004B000DC0C18BF033202EBDC02C2F1200300FAAD
:1004C00003FC20FA02F001FA03FE40EA0E0021FAD2
:1004D00002F11444BDE600BF70B54FF0FF0C4CF4C0
:1004E000E06C1CEA11541DBF1CEA135594EA0C0F72
:1004F00095EA0C0F00F0DEF82C4481EA030621EAAD
:100500004C5123EA4C5350EA013518BF52EA0335E7
:1005100041F4801143F4801338D0A0FB02CE4FF099
:100520000005E1FB02E506F00042E0FB03E54FF0C9
:100530000006E1FB03569CF0000F18BF4EF0010EC1
:10054000A4F1FF04B6F5007F64F5407404D25FEABD
:100550004E0E6D4146EB060642EAC62141EA555170
:100560004FEAC52040EA5E504FEACE2EB4F1FD0CB2
:1005700088BFBCF5E06F1ED8BEF1004F08BF5FEA30
:10058000500E50F1000041EB045170BD06F00046E2
:1005900046EA010140EA020081EA0301B4EB5C048F
:1005A000C2BFD4EB0C0541EA045170BD41F4801187
:1005B0004FF0000E013C00F3AB8014F1360FDEBFAC
:1005C000002001F0004170BDC4F10004203C35DA88
:1005D0000C341BDC04F11404C4F1200500FA05F30B
:1005E00020FA04F001FA05F240EA020001F00042AC
:1005F00021F0004110EBD37021FA04F642EB060122
:100600005EEA430E08BF20EAD37070BDC4F10C044B
:10061000C4F1200500FA04F320FA05F001FA04F20F
:1006200040EA020001F0004110EBD37041F10001FB
:100630005EEA430E08BF20EAD37070BDC4F1200506
:1006400000FA05F24EEA020E20FA04F301FA05F26E
:1006500043EA020321FA04F001F0004121FA04F216
:1006600020EA020000EBD3705EEA430E08BF20EAE6
:10067000D37070BD94F0000F0FD101F00046400020
:1006800041EB010111F4801F08BF013CF7D041EAA2
:10069000060195F0000F18BF704703F000465200A6
:1006A00043EB030313F4801F08BF013DF7D043EA77
:1006B0000603704794EA0C0F0CEA135518BF95EA2D
:1006C0000C0F0CD050EA410618BF52EA4306D1D1B4
:1006D00081EA030101F000414FF0000070BD50EAD3
:1006E000410606BF1046194652EA430619D094EA5D
:1006F0000C0F02D150EA013613D195EA0C0F05D147
:1007000052EA03361CBF104619460AD181EA03019A
:1007100001F0004141F0FE4141F470014FF0000052
:1007200070BD41F0FE4141F4780170BD70B54FF0ED
:10073000FF0C4CF4E06C1CEA11541DBF1CEA13556D
:1007400094EA0C0F95EA0C0F00F0A7F8A4EB05044F
:1007500081EA030E52EA03354FEA013100F0888046
:100760004FEA03334FF0805545EA131343EA12630F
:100770004FEA022245EA111545EA10654FEA0026C4
:100780000EF000419D4208BF964244F1FD0404F57D
:10079000407402D25B084FEA3202B61A65EB0305D9
:1007A0005B084FEA32024FF480104FF4002CB6EB96
:1007B000020E75EB030E22BFB61A754640EA0C0016
:1007C0005B084FEA3202B6EB020E75EB030E22BF56
:1007D000B61A754640EA5C005B084FEA3202B6EB97
:1007E000020E75EB030E22BFB61A754640EA9C0056
:1007F0005B084FEA3202B6EB020E75EB030E22BF26
:10080000B61A754640EADC0055EA060E18D04FEAE3
:10081000051545EA16754FEA06164FEAC30343EA83
:1008200052734FEAC2025FEA1C1CC0D111F4801F50
:100830000BD141EA00014FF000004FF0004CB6E749
:1008400011F4801F04BF01430020B4F1FD0C88BFE8
:10085000BCF5E06F3FF6AFAEB5EB030C04BFB6EBF3
:10086000020C5FEA500C50F1000041EB045170BDE6
:100870000EF0004E4EEA113114EB5C04C2BFD4EB13
:100880000C0541EA045170BD41F480114FF0000E97
:10089000013C90E645EA060E8DE60CEA135594EA13
:1008A0000C0F08BF95EA0C0F3FF43BAF94EA0C0F16
:1008B0000AD150EA01347FF434AF95EA0C0F7FF48B
:1008C00025AF104619462CE795EA0C0F06D152EADF
:1008D00003353FF4FDAE1046194622E750EA4106C3
:1008E00018BF52EA43067FF4C5AE50EA41047FF4D4
:1008F0000DAF52EA43057FF4EBAE12E74FF0FF3C39
:1009000006E000BF4FF0010C02E000BF4FF0010C09
:100910004DF804CD4FEA410C7FEA6C5C4FEA430C82
:1009200018BF7FEA6C5C1BD001B050EA410C0CBFD1
:1009300052EA430C91EA030F02BF90EA020F002033
:10094000704710F1000F91EA030F58BF994208BF9A
:1009500090422CBFD8176FEAE37040F00100704757
:100960004FEA410C7FEA6C5C02D150EA013C07D1AE
:100970004FEA430C7FEA6C5CD6D152EA033CD3D0F9
:100980005DF8040B704700BF8446104662468C46F3
:100990001946634600E000BF01B5FFF7B7FF002826
:1009A00048BF10F1000F01BD4DF808EDFFF7F4FF4F
:1009B0000CBF012000205DF808FB00BF4DF808EDDA
:1009C000FFF7EAFF34BF012000205DF808FB00BFFD
:1009D0004DF808EDFFF7E0FF94BF012000205DF81F
:1009E00008FB00BF4DF808EDFFF7CEFF94BF0120D4
:1009F00000205DF808FB00BF4DF808EDFFF7C4FFCD
:100A000034BF012000205DF808FB00BF4FEA410C15
:100A10007FEA6C5C02D150EA013C0AD14FEA430CF8
:100A20007FEA6C5C02D152EA033C02D14FF0000035
:100A300070474FF0010070474FEA410212F5001273
:100A400015D211D56FF47873B3EB625212D94FEA15
:100A5000C12343F0004343EA505311F0004F23FAFF
:100A600002F018BF404270474FF00000704750EA54
:100A7000013005D111F0004008BF6FF00040704711
:100A80004FF00000704700BF4A0011D212F500126B
:100A900011D20DD56FF47873B3EB62520ED44FEAD6
:100AA000C12343F0004343EA505323FA02F0704756
:100AB0004FF00000704750EA013002D14FF0FF3094
:100AC00070474FF0000070474FEA4102B2F1E04337
:100AD00024BFB3F5001CDCF1FE5C0DD901F0004C25
:100AE0004FEAC0024CEA5070B2F1004F40EB830075
:100AF00008BF20F00100704711F0804F21D113F1A1
:100B00003872BCBF01F00040704741F480114FEAD9
:100B10005252C2F11802C2F1200C10FA0CF320FA62
:100B200002F018BF40F001004FEAC1234FEAD3237F
:100B300003FA0CFC40EA0C0023FA02F34FEA4303E9
:100B4000CCE77FEA625307D150EA01331EBF4FF072
:100B5000FE4040F44000704701F0004040F0FE408D
:100B600040F40000704700BF80F0004002E000BF8A
:100B700081F0004142001FBF5FEA410392EA030F88
:100B80007FEA226C7FEA236C6AD04FEA1262D2EBD2
:100B90001363C1BFD218414048404140B8BF5B42D7
:100BA000192B88BF704710F0004F40F4000020F070
:100BB0007F4018BF404211F0004F41F4000121F086
:100BC0007F4118BF494292EA030F3FD0A2F10102D0
:100BD00041FA03FC10EB0C00C3F1200301FA03F10E
:100BE00000F0004302D5494260EB4000B0F5000F31
:100BF00013D3B0F1807F06D340084FEA310102F1F0
:100C00000102FE2A51D2B1F1004F40EBC25008BFA1
:100C100020F0010040EA03007047490040EB00006B
:100C2000013A28BFB0F5000FEDD2B0FA80FCACF16C
:100C3000080CB2EB0C0200FA0CF0AABF00EBC25099
:100C400052421843BCBFD0401843704792F0000F87
:100C500081F4000106BF80F400000132013BB5E7DA
:100C60004FEA41037FEA226C18BF7FEA236C21D050
:100C700092EA030F04D092F0000F08BF08467047B5
:100C800090EA010F1CBF0020704712F07F4F04D183
:100C9000400028BF40F00040704712F100723CBF96
:100CA00000F50000704700F0004343F0FE4040F4C0
:100CB000000070477FEA226216BF08467FEA23637E
:100CC0000146420206BF5FEA412390EA010F40F469
:100CD000800070474FF0000304E000BF10F00043B5
:100CE00048BF40425FEA000C08BF704743F096439C
:100CF00001464FF000001CE050EA010208BF7047B7
:100D00004FF000030AE000BF50EA010208BF70473D
:100D100011F0004302D5404261EB41015FEA010C52
:100D200002BF84460146002043F0B64308BFA3F14A
:100D30008053A3F50003BCFA8CF2083AA3EBC2532C
:100D400010DB01FA02FC634400FA02FCC2F120024B
:100D5000BCF1004F20FA02F243EB020008BF20F082
:100D60000100704702F1200201FA02FCC2F12002E8
:100D700050EA4C0021FA02F243EB020008BF20EADD
:100D8000DC7070474FF0FF0C1CEAD0521EBF1CEA0B
:100D9000D15392EA0C0F93EA0C0F6FD01A4480EAF9
:100DA000010C400218BF5FEA41211ED04FF00063E2
:100DB00043EA501043EA5111A0FB01310CF000400E
:100DC000B1F5000F3EBF490041EAD3715B0040EA34
:100DD000010062F17F02FD2A1DD8B3F1004F40EB04
:100DE000C25008BF20F00100704790F0000F0CF0D7
:100DF000004C08BF49024CEA502040EA51207F3A9B
:100E0000C2BFD2F1FF0340EAC250704740F4000075
:100E10004FF00003013A5DDC12F1190FDCBF00F066
:100E200000407047C2F10002410021FA02F1C2F114
:100E3000200200FA02FC5FEA310040F1000053EAB0
:100E40004C0308BF20EADC70704792F0000F00F0FE
:100E5000004C02BF400010F4000F013AF9D040EA04
:100E60000C0093F0000F01F0004C02BF490011F498
:100E7000000F013BF9D041EA0C018FE70CEAD15396
:100E800092EA0C0F18BF93EA0C0F0AD030F0004C16
:100E900018BF31F0004CD8D180EA010000F00040CA
:100EA000704790F0000F17BF90F0004F084691F088
:100EB000000F91F0004F14D092EA0C0F01D14202C2
:100EC0000FD193EA0C0F03D14B0218BF084608D18B
:100ED00080EA010000F0004040F0FE4040F40000D5
:100EE000704740F0FE4040F4400070474FF0FF0C68
:100EF0001CEAD0521EBF1CEAD15392EA0C0F93EAAF
:100F00000C0F69D0A2EB030280EA010C49024FEA00
:100F1000402037D04FF0805343EA111143EA1013B9
:100F20000CF000408B4238BF5B0042F17D024FF471
:100F3000000C8B4224BF5B1A40EA0C00B3EB510F4C
:100F400024BFA3EB510340EA5C00B3EB910F24BF35
:100F5000A3EB910340EA9C00B3EBD10F24BFA3EBBA
:100F6000D10340EADC001B0118BF5FEA1C1CE0D182
:100F7000FD2A3FF650AF8B4240EBC25008BF20F035
:100F8000010070470CF0004C4CEA50207F32C2BF89
:100F9000D2F1FF0340EAC250704740F400004FF026
:100FA0000003013A37E792F0000F00F0004C02BF57
:100FB000400010F4000F013AF9D040EA0C0093F021
:100FC000000F01F0004C02BF490011F4000F013B7B
:100FD000F9D041EA0C0195E70CEAD15392EA0C0FE3
:100FE00008D142027FF47DAF93EA0C0F7FF470AF1B
:100FF000084676E793EA0C0F04D14B023FF44CAF5E
:1010000008466EE730F0004C18BF31F0004CCAD1F2
:1010100030F000427FF45CAF31F000437FF43CAF2E
:101020005FE700BF4FF0FF3C06E000BF4FF0010C50
:1010300002E000BF4FF0010C4DF804CD4FEA400232
:101040004FEA41037FEA226C18BF7FEA236C11D07C
:1010500001B052EA530C18BF90EA010F58BFB2EB2F
:10106000030088BFC81738BF6FEAE17018BF40F0AF
:10107000010070477FEA226C02D15FEA402C05D163
:101080007FEA236CE4D15FEA412CE1D05DF8040BE8
:10109000704700BF844608466146FFE70FB5FFF77B
:1010A000C9FF002848BF10F1000F0FBD4DF808ED33
:1010B000FFF7F4FF0CBF012000205DF808FB00BF24
:1010C0004DF808EDFFF7EAFF34BF012000205DF87E
:1010D00008FB00BF4DF808EDFFF7E0FF94BF0120CB
:1010E00000205DF808FB00BF4DF808EDFFF7D2FFC8
:1010F00094BF012000205DF808FB00BF4DF808ED0B
:10110000FFF7C8FF34BF012000205DF808FB00BFD7
:1011100038B505460C460022002328462146FFF735
:101120004DFC28B928462146BDE8384000F00AB8F1
:10113000284604F1004100F005F8404261EB41010E
:1011400038BD00BFD0B500220B4B06460F46FFF757
:10115000C3F9FFF799FC0446FFF744F90022074B57
:10116000FFF7BAF902460B4630463946FEF7FCFF58
:10117000FFF78AFC2146D0BD0000F03D0000F041A1
:1011800080B500AF00F0D2F90346184680BD90B597
:1011900085B000AF786000F0EBF90346002B01D07A
:1011A000012321E0332000F089FA0023FB6009E0ED
:1011B000FB687A68D41800F02FFA03462370FB68A6
:1011C0000133FB60FB68072BF2DD0721786800F034
:1011D000BCFA0346FB727B6807331B78FA7A9A42A3
:1011E00001D1002300E0012318461437BD4690BD0D
:1011F00080B584B000AF78600B46FB7000F0B8F9A2
:101200000346002B01D001231EE07B68002B03D195
:10121000CC2000F053FA12E0552000F04FFA0023E2
:10122000FB6009E0FB687A6813441B78184600F0FD
:1012300045FAFB680133FB60FB68072BF2DDFB78A6
:10124000184600F03BFA002318461037BD4680BD13
:1012500080B582B000AF786044217868FFF7C8FF9E
:10126000034618460837BD4680BD90B585B000AF2F
:1012700078603960BE217868FFF7BAFF0346002B1B
:1012800001D001231EE00023FB6009E0FB683A68FF
:10129000D41800F0C1F903462370FB680133FB60EA
:1012A000FB68082BF2DD0821386800F04EFA03468F
:1012B000FB723B6808331B78FA7A9A4201D100230B
:1012C00000E0012318461437BD4690BD80B586B0B6
:1012D00000AF786007F10C0319467868FFF7C5FF87
:1012E0000346002B01D00A4B0DE0BB897B81B7F987
:1012F0000A301846FFF7F2FC03464FF083411846C8
:10130000FFF7F4FD034618461837BD4680BD00BF01
:101310000000AA4280B586B000AF07F108030022A2
:101320001A605A609A60DA601E4B9B691D4A43F04E
:10133000040393611B4B9B6903F004037B607B6890
:10134000184B9B69174A43F008039361154B9B693F
:1013500003F008033B603B6801224FF480511248C0
:1013600000F0E9FF1023BB600023FB6000233B611A
:1013700007F1080319460C4800F042FE4FF4805371
:10138000BB601123FB6001233B6102237B6107F1FA
:1013900008031946044800F033FE00BF1837BD4665
:1013A00080BD00BF001002400008014080B582B03F
:1013B00000AF7860391D4FF0FF330122034802F07F
:1013C000B3FA012318460837BD4680BDA0020020AD
:1013D00080B584B000AF00F07FFC2A4801F0B2FE77
:1013E00000F05EF8FFF796FF00F0DCFB00F066FB14
:1013F00000F0CCF9FFF7C4FE07F108031846FFF729
:10140000C6FE0346002B02D01F4803F087FB0020D6
:10141000FFF71EFF40F2EE2000F0C0FC0020FFF7B7
:1014200055FF03463B603B687B6000BF10211748B7
:1014300000F06AFF0346012BF8D000BF144801F00A
:101440006BFD0346012BF9D1391D4FF0FF33042208
:101450000F4801F01DFC3B680E491846FFF744FE9B
:101460000346002B03D00C4803F058FBCFE73B6842
:101470001846FEF7D9FF02460B46084803F0C8FAA3
:10148000C5E700BF58020020C886000800080140D8
:10149000FC0100200000A042EC860008FC86000849
:1014A00080B590B000AF07F118032822002118463C
:1014B00002F038FC3B1D00221A605A609A60DA6024
:1014C0001A610223BB610123BB621023FB6202236A
:1014D0007B630023BB634FF46013FB6307F11803C6
:1014E000184600F041FF0346002B01D000F019F828
:1014F0000F237B600223BB600023FB604FF48063FB
:101500003B6100237B613B1D0221184601F0AEF9CF
:101510000346002B01D000F004F800BF4037BD4661
:1015200080BD80B400AF72B600BFFEE780B500AFEB
:10153000024801F007FE0346184680BD580200200D
:1015400080B483B000AF7860084B1B6800225A62F9
:1015500000BF064B1B685B6A7A689A42F9D800BFE5
:1015600000BF0C37BD4680BC704700BF580200204A
:1015700080B582B000AF00224FF48051124800F0D5
:10158000DAFE4FF4F070FFF7DBFF01224FF48051D9
:101590000D4800F0D0FE4620FFF7D2FF4FF48051F7
:1015A000094800F0B1FE03467B604FF4CD70FFF7B1
:1015B000C7FF7B68002B01D1002300E00123184600
:1015C0000837BD4680BD00BF0008014080B582B02D
:1015D00000AF00224FF480510E4800F0ACFE062010
:1015E000FFF7AEFF01224FF480510A4800F0A3FE3E
:1015F0000920FFF7A5FF4FF48051064800F084FE54
:1016000003467B603720FFF79BFF7B68184608374F
:10161000BD4680BD0008014080B582B000AF002308
:10162000FB7100233B600EE0FB795B08FB71FFF769
:10163000CDFF0346002B03D0FB7963F07F03FB71E2
:101640003B6801333B603B68072BEDDDFB791846B7
:101650000837BD4680BD000080B582B000AF78601D
:101660007B68002B12D000224FF48051124800F00A
:1016700062FE0620FFF764FF01224FF480510E48FE
:1016800000F059FE4020FFF75BFF11E000224FF40D
:101690008051094800F04FFE3C20FFF751FF012226
:1016A0004FF48051044800F046FE0A20FFF748FF3F
:1016B00000BF0837BD4680BD0008014080B584B03A
:1016C00000AF0346FB710023FB600BE0FB7903F0E6
:1016D00001031846FFF7C0FFFB795B08FB71FB684D
:1016E0000133FB60FB68072BF0DD00BF00BF103744
:1016F000BD4680BD80B485B000AF03460A46FB718D
:101700001346BB710023FB6016E0FA79BB795340A6
:10171000FB72FB795B08FB71FB7A03F00103002B82
:1017200004D0FB7983F07303DB43FB71BB795B0867
:10173000BB71FB680133FB60FB68072BE5DDFB79C0
:1017400018461437BD4680BC704780B584B000AFE2
:10175000786039600023FB720023FB600DE0FB68BA
:101760007A6813441A78FB7A11461846FFF7C2FFCD
:101770000346FB72FB680133FB60FA683B689A42E0
:10178000EDDBFB7A18461037BD4680BD80B500AF53
:10179000154B164A1A60144B00225A60124B002255
:1017A0009A60114B0022DA600F4B00221A610E4B37
:1017B00000225A610C4B4FF400729A610A4B0022CE
:1017C0001A62094B00225A62074B00229A62064BAA
:1017D0000A22DA62044801F0D7F90346002B01D04F
:1017E000FFF79FFE00BF80BDFC01002000380040D5
:1017F00080B588B000AF786007F1100300221A604E
:101800005A609A60DA607B681B681C4A934231D147
:101810001B4BDB691A4A43F48043D361184BDB69E5
:1018200003F48043FB60FB68154B9B69144A43F04B
:1018300008039361124B9B6903F00803BB60BB680C
:101840004FF420433B6100237B610023BB6107F120
:10185000100319460B4800F0D3FB4FF480433B6163
:1018600002237B610323FB6107F11003194605483E
:1018700000F0C6FB00BF2037BD4680BD00380040E9
:1018800000100240000C014080B483B000AF0E4B4A
:101890009B690D4A43F0010393610B4B9B6903F075
:1018A00001037B607B68084BDB69074A43F0805388
:1018B000D361054BDB6903F080533B603B6800BF9D
:1018C0000C37BD4680BC70470010024080B400AFAA
:1018D000FEE780B400AFFEE780B400AFFEE780B45F
:1018E00000AFFEE780B400AFFEE780B400AF00BFFA
:1018F000BD4680BC704780B400AF00BFBD4680BC11
:10190000704780B400AF00BFBD4680BC704780B553
:1019100000AF00F027FA00BF80BD000080B500AF27
:10192000024801F059FC00BF80BD00BF58020020F2
:1019300080B400AF01231846BD4680BC704780B517
:1019400082B000AF7860396002F0C2F90346162217
:101950001A604FF0FF3318460837BD4680BD80B58A
:1019600082B000AF78604FF0FF317868FFF7E7FF93
:10197000FEE780B586B000AFF860B9607A600023FA
:101980007B610AE0AFF300800146BB685A1CBA6075
:10199000CAB21A707B6901337B617A697B689A42AB
:1019A000F0DB7B6818461837BD4680BD80B586B031
:1019B00000AFF860B9607A6000237B6109E0BB6822
:1019C0005A1CBA601B781846FFF7F0FC7B6901339C
:1019D0007B617A697B689A42F1DB7B68184618372D
:1019E000BD4680BD80B483B000AF78604FF0FF3358
:1019F00018460C37BD4680BC704780B483B000AF3A
:101A0000786039603B684FF400525A6000231846F2
:101A10000C37BD4680BC704780B483B000AF78609F
:101A2000012318460C37BD4680BC704780B485B092
:101A300000AFF860B9607A60002318461437BD46DD
:101A400080BC704780B586B000AF7860144A154BF3
:101A5000D31A7B617B693B61134B1B68002B02D15E
:101A6000114B124A1A60104B1A687B6813443A698A
:101A70009A4207D202F02CF903460C221A604FF06A
:101A8000FF3309E0084B1B68FB60074B1A687B6853
:101A90001344054A1360FB6818461837BD4680BDDD
:101AA0000050002000040000540200200003002029
:101AB00080B400AF00BFBD4680BC704780B586B023
:101AC00000AF07F1080300221A605A609A60DA60DA
:101AD0003B4600221A605A601D4B1E4A1A601C4B7E
:101AE0003F225A601A4B00229A60194B4FF6FF7240
:101AF000DA60174B00221A61154B00229A611448D4
:101B000001F0D1FA0346002B01D0FFF70AFD4FF494
:101B10008053BB6007F1080319460D4801F04CFCE7
:101B20000346002B01D0FFF7FCFC00233B600023A1
:101B30007B603B461946064801F036FE0346002B03
:101B400001D0FFF7EEFC00BF1837BD4680BD00BFD7
:101B5000580200200004004080B584B000AF7860D7
:101B60007B681B680D4A934213D10D4BDB690C4A0D
:101B700043F00203D3610A4BDB6903F00203FB600D
:101B8000FB6800220A211D2000F003FA1D2000F04E
:101B90001CFA00BF1037BD4680BD00BF00040040E6
:101BA0000010024080B500AF114B124A1A60104B72
:101BB0004FF4E1325A600E4B00229A600C4B002227
:101BC000DA600B4B00221A61094B0C225A61084B58
:101BD00000229A61064B0022DA61054801F054FEAA
:101BE0000346002B01D0FFF79CFC00BF80BD00BF67
:101BF000A00200200044004080B588B000AF7860AB
:101C000007F1100300221A605A609A60DA607B685C
:101C10001B681B4A93422FD11A4BDB69194A43F4C4
:101C20000033D361174BDB6903F40033FB60FB68BF
:101C3000144B9B69134A43F004039361114B9B6956
:101C400003F00403BB60BB6804233B6102237B6198
:101C50000323FB6107F1100319460B4800F0D0F98C
:101C600008233B6100237B610023BB6107F1100364
:101C70001946054800F0C4F900BF2037BD4680BDB5
:101C8000004400400010024000080140FFF710FF30
:101C90000B480C490C4A002302E0D458C4500433CA
:101CA000C4188C42F9D3094A094C002301E013609F
:101CB0000432A242FBD302F011F8FFF789FB704710
:101CC00000000020E0010020F48B0008E00100206B
:101CD000FC020020FEE7000080B500AF084B1B6847
:101CE000074A43F010031360032000F047F90F2068
:101CF00000F008F8FFF7C8FD0023184680BD00BFBC
:101D00000020024080B582B000AF7860124B1A68A4
:101D1000124B1B7819464FF47A73B3FBF1F3B2FB05
:101D2000F3F3184600F05FF90346002B01D00123BE
:101D30000EE07B680F2B0AD8002279684FF0FF3045
:101D400000F027F9064A7B681360002300E00123B6
:101D500018460837BD4680BD00000020080000205E
:101D60000400002080B400AF054B1B781A46054BD9
:101D70001B681344034A136000BFBD4680BC704714
:101D800008000020E802002080B400AF024B1B686E
:101D90001846BD4680BC7047E802002080B584B07C
:101DA00000AF7860FFF7F0FFB8607B68FB60FB680E
:101DB000B3F1FF3F05D00A4B1B781A46FB6813446A
:101DC000FB6000BFFFF7E0FF0246BB68D31AFA686A
:101DD0009A42F7D800BF00BF1037BD4680BD00BF94
:101DE0000800002080B485B000AF78607B6803F005
:101DF0000703FB600C4BDB68BB60BA684FF6FF0360
:101E00001340BB60FB681A02BB68134343F0BF6317
:101E100043F40033BB60044ABB68D36000BF14378F
:101E2000BD4680BC704700BF00ED00E080B400AF4D
:101E3000044BDB681B0A03F007031846BD4680BC51
:101E4000704700BF00ED00E080B483B000AF0346F0
:101E5000FB7197F90730002B0BDBFB7903F01F02B6
:101E6000064997F907305B09012000FA02F241F8B0
:101E7000232000BF0C37BD4680BC704700E100E066
:101E800080B483B000AF03463960FB7197F9073027
:101E9000002B0ADB3B68DAB20C4997F907301201D4
:101EA000D2B20B4483F800230AE03B68DAB2084957
:101EB000FB7903F00F03043B1201D2B20B441A76F4
:101EC00000BF0C37BD4680BC704700BF00E100E09A
:101ED00000ED00E080B489B000AFF860B9607A60CE
:101EE000FB6803F00703FB61FB69C3F10703042BE5
:101EF00028BF0423BB61FB690433062B02D9FB69AD
:101F0000033B00E000237B614FF0FF32BB6902FA24
:101F100003F3DA43BB681A407B699A404FF0FF3104
:101F20007B6901FA03F3D9437B680B4013431846DE
:101F30002437BD4680BC704780B582B000AF786062
:101F40007B68013BB3F1807F01D301230FE00A4A94
:101F50007B68013B53600F214FF0FF30FFF790FF8C
:101F6000054B00229A60044B07221A600023184692
:101F70000837BD4680BD00BF10E000E080B582B0EC
:101F800000AF78607868FFF72DFF00BF0837BD46C7
:101F900080BD80B586B000AF0346B9607A60FB7340
:101FA00000237B61FFF742FF78617A68B96878693E
:101FB000FFF790FF024697F90F3011461846FFF7DA
:101FC0005FFF00BF1837BD4680BD80B582B000AF4F
:101FD0000346FB7197F907301846FFF735FF00BF3E
:101FE0000837BD4680BD80B582B000AF78607868A4
:101FF000FFF7A2FF034618460837BD4680BD000024
:1020000080B48BB000AF7860396000237B6200231E
:102010003B6269E101227B6A02FA03F3FB613B68E0
:102020001B68FA691340BB61BA69FB699A4240F0C8
:1020300058813B685B689A4A93425ED0984A9342C3
:1020400075D8984A934258D0964A93426FD8964A88
:10205000934252D0944A934269D8944A93424CD0C6
:10206000924A934263D8924A934246D0904A93420E
:102070005DD8122B2AD8122B59D801A252F823F07E
:10208000FB200008D5200008E720000829210008CF
:102090002F2100082F2100082F2100082F210008E0
:1020A0002F2100082F2100082F2100082F210008D0
:1020B0002F2100082F2100082F2100082F210008C0
:1020C0002F210008DD200008F1200008794A934202
:1020D00013D02CE03B68DB683B6229E03B68DB689F
:1020E00004333B6224E03B68DB6808333B621FE05B
:1020F0003B68DB680C333B621AE03B689B68002B53
:1021000002D104233B6213E03B689B68012B05D19D
:1021100008233B627B68FA691A6109E008233B6285
:102120007B68FA695A6103E000233B6200E000BF6C
:10213000BB69FF2B01D87B6801E07B6804337B61BE
:10214000BB69FF2B02D87B6A9B0002E07B6A083BDD
:102150009B003B617B691A680F213B6901FA03F31D
:10216000DB431A40396A3B6901FA03F31A437B697E
:102170001A603B685B6803F08053002B00F0B1806D
:102180004D4B9B694C4A43F0010393614A4B9B6959
:1021900003F00103BB60BB68484A7B6A9B080233BB
:1021A00052F82330FB607B6A03F003039B000F228D
:1021B00002FA03F3DB43FA681340FB607B68404A92
:1021C000934213D07B683F4A93420DD07B683E4ACE
:1021D000934207D07B683D4A934201D1032306E036
:1021E000042304E0022302E0012300E000237A6AD2
:1021F00002F0030292009340FA681343FB602F49F8
:102200007B6A9B080233FA6841F823203B685B68CD
:1022100003F48013002B06D02D4B9A682C49BB6920
:1022200013438B6006E02A4B9A68BB69DB4328495D
:1022300013408B603B685B6803F40013002B06D0EF
:10224000234BDA682249BB691343CB6006E0204B7D
:10225000DA68BB69DB431E491340CB603B685B68AF
:1022600003F40033002B06D0194B5A681849BB6998
:1022700013434B6006E0164B5A68BB69DB431449B5
:1022800013404B603B685B6803F48033002B21D024
:102290000F4B1A680E49BB6913430B6021E000BF66
:1022A0000000321000003110000022100000211048
:1022B0000000121000001110001002400000014048
:1022C00000080140000C01400010014000140140D2
:1022D000000401400B4B1A68BB69DB4309491340FA
:1022E0000B607B6A01337B623B681A687B6A22FA67
:1022F00003F3002B7FF48EAE00BF00BF2C37BD462A
:1023000080BC70470004014080B485B000AF7860A5
:102310000B467B807B689A687B881340002B02D039
:102320000123FB7301E00023FB73FB7B184614378A
:10233000BD4680BC704780B483B000AF78600B4668
:102340007B8013467B707B78002B03D07A887B6878
:102350001A6103E07B881A047B681A6100BF0C379E
:10236000BD4680BC7047000080B586B000AF786085
:102370007B68002B01D1012372E27B681B6803F0AC
:102380000103002B00F08780924B5B6803F00C0385
:10239000042B0CD08F4B5B6803F00C03082B12D17D
:1023A0008C4B5B6803F48033B3F5803F0BD1894BD2
:1023B0001B6803F40033002B6CD07B685B68002B38
:1023C00068D101234CE27B685B68B3F5803F06D19E
:1023D000804B1B687F4A43F4803313602EE07B6898
:1023E0005B68002B0CD17B4B1B687A4A23F480334B
:1023F0001360784B1B68774A23F4802313601DE039
:102400007B685B68B3F5A02F0CD1724B1B68714AD7
:1024100043F4802313606F4B1B686E4A43F4803390
:1024200013600BE06B4B1B686A4A23F48033136024
:10243000684B1B68674A23F4802313607B685B68E2
:10244000002B13D0FFF7A0FC386108E0FFF79CFCDD
:1024500002463B69D31A642B01D9032300E25D4B8A
:102460001B6803F40033002BF0D014E0FFF78CFC62
:10247000386108E0FFF788FC02463B69D31A642BF9
:1024800001D90323ECE1534B1B6803F40033002B09
:10249000F0D100E000BF7B681B6803F00203002B53
:1024A00063D04C4B5B6803F00C03002B0BD0494B03
:1024B0005B6803F00C03082B1CD1464B5B6803F4EC
:1024C0008033002B16D1434B1B6803F00203002B13
:1024D00005D07B681B69012B01D00123C0E13D4B76
:1024E0001B6823F0F8027B685B69DB003949134302
:1024F0000B603AE07B681B69002B20D0364B012231
:102500001A60FFF741FC386108E0FFF73DFC024626
:102510003B69D31A022B01D90323A1E12D4B1B6880
:1025200003F00203002BF0D02A4B1B6823F0F802C3
:102530007B685B69DB00274913430B6015E0264B82
:1025400000221A60FFF720FC386108E0FFF71CFC4E
:1025500002463B69D31A022B01D9032380E11D4BAC
:102560001B6803F00203002BF0D17B681B6803F0AB
:102570000803002B3AD07B689B69002B19D0174BBE
:1025800001221A60FFF700FC386108E0FFF7FCFB4E
:1025900002463B69D31A022B01D9032360E10D4B9C
:1025A0005B6A03F00203002BF0D0012000F0CEFAAA
:1025B0001CE00A4B00221A60FFF7E6FB38610FE0CF
:1025C000FFF7E2FB02463B69D31A022B08D903232B
:1025D00046E100BF00100240000042428004424237
:1025E000924B5B6A03F00203002BE9D17B681B6806
:1025F00003F00403002B00F0A6800023FB758B4B37
:10260000DB6903F08053002B0DD1884BDB69874ACF
:1026100043F08053D361854BDB6903F08053BB608B
:10262000BB680123FB75824B1B6803F48073002B8E
:1026300018D17F4B1B687E4A43F480731360FFF709
:10264000A3FB386108E0FFF79FFB02463B69D31A02
:10265000642B01D9032303E1754B1B6803F48073DA
:10266000002BF0D07B68DB68012B06D16F4B1B6A17
:102670006E4A43F0010313622DE07B68DB68002B98
:102680000CD16A4B1B6A694A23F001031362674B42
:102690001B6A664A23F0040313621CE07B68DB6854
:1026A000052B0CD1614B1B6A604A43F00403136293
:1026B0005E4B1B6A5D4A43F0010313620BE05B4B08
:1026C0001B6A5A4A23F001031362584B1B6A574A8C
:1026D00023F0040313627B68DB68002B15D0FFF73F
:1026E00053FB38610AE0FFF74FFB02463B69D31A00
:1026F00041F28832934201D90323B1E04B4B1B6A6C
:1027000003F00203002BEED014E0FFF73DFB38612D
:102710000AE0FFF739FB02463B69D31A41F28832DF
:10272000934201D903239BE0404B1B6A03F0020351
:10273000002BEED1FB7D012B05D13C4BDB693B4AE5
:1027400023F08053D3617B68DB69002B00F0878026
:10275000364B5B6803F00C03082B61D07B68DB69A8
:10276000022B46D1334B00221A60FFF70DFB386174
:1027700008E0FFF709FB02463B69D31A022B01D997
:1027800003236DE0294B1B6803F00073002BF0D18D
:102790007B681B6AB3F5803F08D1244B5B6823F448
:1027A00000327B689B68214913434B601F4B5B6879
:1027B00023F474127B68196A7B685B6A0B431B49BC
:1027C00013434B601B4B01221A60FFF7DDFA38619F
:1027D00008E0FFF7D9FA02463B69D31A022B01D968
:1027E00003233DE0114B1B6803F00073002BF0D076
:1027F00035E0104B00221A60FFF7C6FA386108E096
:10280000FFF7C2FA02463B69D31A022B01D9032310
:1028100026E0064B1B6803F00073002BF0D11EE08E
:102820007B68DB69012B07D1012319E0001002400E
:1028300000700040600042420B4B5B68FB60FB682D
:1028400003F480327B681B6A9A4206D1FB6803F46A
:1028500070127B685B6A9A4201D0012300E000237A
:1028600018461837BD4680BD0010024080B584B0C0
:1028700000AF786039607B68002B01D10123D0E084
:102880006A4B1B6803F007033A689A4210D9674BFA
:102890001B6823F0070265493B6813430B60634BD9
:1028A0001B6803F007033A689A4201D00123B8E09D
:1028B0007B681B6803F00203002B20D07B681B6839
:1028C00003F00403002B05D0594B5B68584A43F4CE
:1028D000E06353607B681B6803F00803002B05D09E
:1028E000534B5B68524A43F460535360504B5B68F0
:1028F00023F0F0027B689B684D4913434B607B6873
:102900001B6803F00103002B40D07B685B68012B40
:1029100007D1474B1B6803F40033002B15D101236B
:102920007FE07B685B68022B07D1414B1B6803F09B
:102930000073002B09D1012373E03D4B1B6803F0AA
:102940000203002B01D101236BE0394B5B6823F0BC
:1029500003027B685B68364913434B60FFF714FA48
:10296000F8600AE0FFF710FA0246FB68D31A41F25A
:102970008832934201D9032353E02D4B5B6803F067
:102980000C027B685B689B009A42EBD1274B1B686B
:1029900003F007033A689A4210D2244B1B6823F0D5
:1029A000070222493B6813430B60204B1B6803F06E
:1029B00007033A689A4201D0012332E07B681B6822
:1029C00003F00403002B08D0194B5B6823F4E0628A
:1029D0007B68DB68164913434B607B681B6803F018
:1029E0000803002B09D0124B5B6823F460527B680C
:1029F0001B69DB000E4913434B6000F021F80246CF
:102A00000B4B5B681B0903F00F030A49CB5C22FAEE
:102A100003F3094A1360094B1B681846FFF772F964
:102A2000002318461037BD4680BD00BF002002407D
:102A3000001002401487000800000020040000205D
:102A400080B487B000AF0023FB600023BB6000238D
:102A50007B6100237B6000233B611E4B5B68FB6056
:102A6000FB6803F00C03042B02D0082B03D027E0F3
:102A7000194B3B6127E0FB689B0C03F00F03174ADF
:102A8000D35C7B60FB6803F48033002B10D0114BC8
:102A90005B685B0C03F00103114AD35CBB607B688D
:102AA0000D4A03FB02F2BB68B2FBF3F37B6104E067
:102AB0007B680C4A02FB03F37B617B693B6102E0AC
:102AC000054B3B6100BF3B6918461C37BD4680BCC7
:102AD000704700BF0010024000127A002C870008E7
:102AE0003C87000800093D0080B400AF024B1B6822
:102AF0001846BD4680BC70470000002080B500AF7E
:102B0000FFF7F2FF0246054B5B681B0A03F0070361
:102B10000349CB5C22FA03F3184680BD0010024043
:102B20002487000880B500AFFFF7DEFF0246054BA3
:102B30005B68DB0A03F007030349CB5C22FA03F36B
:102B4000184680BD001002402487000880B485B07C
:102B500000AF78600A4B1B680A4AA2FB03235B0A9A
:102B60007A6802FB03F3FB6000BFFB685A1EFA6041
:102B7000002BF9D100BF00BF1437BD4680BC7047A1
:102B800000000020D34D621080B582B000AF7860A5
:102B90007B68002B01D1012376E07B685B6A002B08
:102BA00008D17B685B68B3F5827F09D07B6800221F
:102BB000DA6105E07B6800221A617B6800225A61B5
:102BC0007B6800229A627B6893F85130DBB2002B5D
:102BD00006D17B68002283F850207868FEF708FE53
:102BE0007B68022283F851207B681B681A687B6827
:102BF0001B6822F040021A607B685B6803F48272F3
:102C00007B689B6803F404431A437B68DB6803F426
:102C100000631A437B681B6903F002031A437B6855
:102C20005B6903F001031A437B689B6903F400733B
:102C30001A437B68DB6903F038031A437B681B6A1D
:102C400003F0800342EA03017B689B6A03F40052AD
:102C50007B681B680A431A607B689B691A0C7B6857
:102C60001B6802F004025A607B681B68DA697B68A3
:102C70001B6822F40062DA617B6800225A657B6877
:102C8000012283F85120002318460837BD4680BD35
:102C900080B588B000AFF860B9603B601346FB8038
:102CA000FFF772F8F861FB887B83FB6893F851307B
:102CB000DBB2012B01D002232AE1BB68002B02D03A
:102CC000FB88002B01D1012322E1FB6893F85030EF
:102CD000012B01D102231BE1FB68012283F8502064
:102CE000FB68032283F85120FB6800225A65FB68C9
:102CF000BA681A63FB68FA889A86FB68FA88DA86EB
:102D0000FB6800229A63FB6800229A87FB68002216
:102D1000DA87FB6800225A64FB6800221A64FB68A9
:102D20009B68B3F5004F0FD1FB681B681A68FB68FE
:102D30001B6822F040021A60FB681B681A68FB6877
:102D40001B6842F480421A60FB681B681B6803F032
:102D50004003402B07D0FB681B681A68FB681B68A0
:102D600042F040021A60FB68DB68B3F5006F52D195
:102D7000FB685B68002B02D07B8B012B45D1FB6885
:102D80001B6B1A88FB681B68DA60FB681B6B9A1C5C
:102D9000FB681A63FB68DB8E9BB2013B9AB2FB684F
:102DA000DA8632E0FB681B689B6803F00203022BA3
:102DB00012D1FB681B6B1A88FB681B68DA60FB6822
:102DC0001B6B9A1CFB681A63FB68DB8E9BB2013B92
:102DD0009AB2FB68DA8618E0FEF7D6FF0246FB6976
:102DE000D31A3A689A4203D83B68B3F1FF3F02D145
:102DF0003B68002B09D1FB68012283F85120FB6856
:102E0000002283F85020032382E0FB68DB8E9BB214
:102E1000002BC7D153E0FB685B68002B02D07B8B93
:102E2000012B47D1FB681A6BFB681B680C331278C7
:102E30001A70FB681B6B5A1CFB681A63FB68DB8EFD
:102E40009BB2013B9AB2FB68DA8633E0FB681B68F1
:102E50009B6803F00203022B13D1FB681A6BFB681B
:102E60001B680C3312781A70FB681B6B5A1CFB68CA
:102E70001A63FB68DB8E9BB2013B9AB2FB68DA8671
:102E800018E0FEF781FF0246FB69D31A3A689A42BE
:102E900003D83B68B3F1FF3F02D13B68002B09D157
:102EA000FB68012283F85120FB68002283F8502040
:102EB00003232DE0FB68DB8E9BB2002BC6D1FA69A1
:102EC0003968F86800F0BEF80346002B02D0FB68B2
:102ED00020225A65FB689B68002B0AD100237B6186
:102EE000FB681B68DB687B61FB681B689B687B6118
:102EF0007B69FB68012283F85120FB68002283F87C
:102F00005020FB685B6D002B01D0012300E0002303
:102F100018462037BD4680BD80B483B000AF7860CE
:102F20007B6893F85130DBB218460C37BD4680BC45
:102F30007047000080B588B000AFF860B9603B60B2
:102F40001346FB71FEF720FF0246BB6A9B1A3A68E4
:102F50001344FB61FEF718FFB861394B1B685B0136
:102F60001B0DFA6902FB03F37B6154E03B68B3F18C
:102F7000FF3F50D0FEF708FF0246BB69D31AFA693B
:102F80009A4202D9FB69002B3DD1FB681B685A6845
:102F9000FB681B6822F0E0025A60FB685B68B3F5CF
:102FA000827F11D1FB689B68B3F5004F04D0FB68AA
:102FB0009B68B3F5806F07D1FB681B681A68FB68D4
:102FC0001B6822F040021A60FB689B6AB3F5005F41
:102FD0000FD1FB681B681A68FB681B6822F400525B
:102FE0001A60FB681B681A68FB681B6842F4005291
:102FF0001A60FB68012283F85120FB68002283F8E5
:103000005020032317E07B69002B01D10023FB61D3
:103010007B69013B7B61FB681B689A68BB68134056
:10302000BA689A420CBF01230023DBB21A46FB792F
:103030009A429BD1002318462037BD4680BD00BF71
:103040000000002080B586B002AFF860B9607A60F9
:103050007B680093BB6801220221F868FFF76AFFD2
:103060000346002B07D0FB685B6D43F02002FB6832
:103070005A65032313E07B680093BB68002280211C
:10308000F868FFF757FF0346002B07D0FB685B6D1E
:1030900043F02002FB685A65032300E00023184632
:1030A0001037BD4680BD80B582B000AF78607B68C8
:1030B000002B01D1012341E07B6893F83D30DBB266
:1030C000002B06D17B68002283F83C207868FEF74D
:1030D00043FD7B68022283F83D207B681A687B6889
:1030E00004331946104600F05BFA7B68012283F82E
:1030F00046207B68012283F83E207B68012283F80A
:103100003F207B68012283F840207B68012283F8FE
:1031100041207B68012283F842207B68012283F8EA
:1031200043207B68012283F844207B68012283F8D6
:1031300045207B68012283F83D200023184608378C
:10314000BD4680BD80B485B000AF78607B6893F8E1
:103150003D30DBB2012B01D0012332E07B6802223B
:1031600083F83D207B681B68184A93420ED07B6829
:103170001B68B3F1804F09D07B681B68144A9342E7
:1031800004D07B681B68134A934211D17B681B688B
:103190009B6803F00703FB60FB68062B10D07B687D
:1031A0001B681A687B681B6842F001021A6007E01E
:1031B0007B681B681A687B681B6842F001021A6012
:1031C000002318461437BD4680BC7047002C0140D0
:1031D000000400400008004080B584B000AF786073
:1031E0007B681B68DB68FB607B681B681B69BB60D6
:1031F000BB6803F00203002B20D0FB6803F002033E
:10320000002B1BD07B681B686FF002021A617B6881
:1032100001221A777B681B689B6903F00303002B6C
:1032200003D0786800F0A1F905E0786800F094F91F
:10323000786800F0A3F97B6800221A77BB6803F076
:103240000403002B20D0FB6803F00403002B1BD0E9
:103250007B681B686FF004021A617B6802221A7790
:103260007B681B689B6903F44073002B03D078686C
:1032700000F07BF905E0786800F06EF9786800F0FE
:103280007DF97B6800221A77BB6803F00803002BE6
:1032900020D0FB6803F00803002B1BD07B681B6861
:1032A0006FF008021A617B6804221A777B681B683A
:1032B000DB6903F00303002B03D0786800F055F9B5
:1032C00005E0786800F048F9786800F057F97B6805
:1032D00000221A77BB6803F01003002B20D0FB6894
:1032E00003F01003002B1BD07B681B686FF01002EB
:1032F0001A617B6808221A777B681B68DB6903F414
:103300004073002B03D0786800F02FF905E078684F
:1033100000F022F9786800F031F97B6800221A7712
:10332000BB6803F00103002B0CD0FB6803F0010322
:10333000002B07D07B681B686FF001021A61786868
:1033400000F001F9BB6803F08003002B0CD0FB6890
:1033500003F08003002B07D07B681B686FF08002AE
:103360001A61786800F087FABB6803F04003002B0D
:103370000CD0FB6803F04003002B07D07B681B6870
:103380006FF040021A61786800F001F9BB6803F041
:103390002003002B0CD0FB6803F02003002B07D088
:1033A0007B681B686FF020021A61786800F05AFA97
:1033B00000BF1037BD4680BD80B584B000AF7860D7
:1033C00039600023FB737B6893F83C30012B01D1FB
:1033D0000223B4E07B68012283F83C207B68022250
:1033E00083F83D207B681B689B68BB60BB6823F04B
:1033F0007703BB60BB6823F47F43BB607B681B68BB
:10340000BA689A603B681B68B3F5005F3ED0B3F5BD
:10341000005F00F28780B3F5805F00F08680B3F52F
:10342000805F7FD8702B1AD0702B7BD8602B50D048
:10343000602B77D8502B3CD0502B73D8402B58D0D2
:10344000402B6FD8302B64D0302B6BD8202B60D022
:10345000202B67D8002B5CD0102B5AD062E07B6801
:1034600018683B6899683B685A683B68DB6800F0FD
:103470007CF97B681B689B68BB60BB6843F0770383
:10348000BB607B681B68BA689A604FE07B6818680D
:103490003B6899683B685A683B68DB6800F065F9EF
:1034A0007B681B689A687B681B6842F480429A605C
:1034B0003CE07B6818683B6859683B68DB681A46E3
:1034C00000F0DCF87B681B685021184600F033F9E7
:1034D0002CE07B6818683B6859683B68DB681A46D3
:1034E00000F0FAF87B681B686021184600F023F9A9
:1034F0001CE07B6818683B6859683B68DB681A46C3
:1035000000F0BCF87B681B684021184600F013F9F6
:103510000CE07B681A683B681B681946104600F08F
:103520000AF903E00123FB7300E000BF7B6801227E
:1035300083F83D207B68002283F83C20FB7B184603
:103540001037BD4680BD80B483B000AF786000BF47
:103550000C37BD4680BC704780B483B000AF786044
:1035600000BF0C37BD4680BC704780B483B000AF4D
:10357000786000BF0C37BD4680BC704780B483B014
:1035800000AF786000BF0C37BD4680BC704780B488
:1035900083B000AF786000BF0C37BD4680BC704779
:1035A00080B485B000AF786039607B681B68FB60D1
:1035B0007B682F4A93420BD07B68B3F1804F07D0D2
:1035C0007B682C4A934203D07B682B4A934208D1F4
:1035D000FB6823F07003FB603B685B68FA68134389
:1035E000FB607B68224A93420BD07B68B3F1804F2B
:1035F00007D07B681F4A934203D07B681E4A9342E0
:1036000008D1FB6823F44073FB603B68DB68FA6811
:103610001343FB60FB6823F080023B685B69134344
:10362000FB607B68FA681A603B689A687B68DA62BC
:103630003B681A687B689A627B680D4A934203D1A3
:103640003B681A697B681A637B6801225A617B6850
:103650001B6903F00103002B05D07B681B6923F075
:1036600001027B681A6100BF1437BD4680BC7047F9
:10367000002C0140000400400008004080B487B0E6
:1036800000AFF860B9607A60FB681B6A7B61FB6819
:103690001B6A23F00102FB681A62FB689B693B61AD
:1036A0003B6923F0F0033B617B681B013A691343DC
:1036B0003B617B6923F00A037B617A69BB68134332
:1036C0007B61FB683A699A61FB687A691A6200BF9C
:1036D0001C37BD4680BC704780B487B000AFF8602F
:1036E000B9607A60FB681B6A7B61FB681B6A23F028
:1036F0001002FB681A62FB689B693B613B6923F41B
:1037000070433B617B681B033A6913433B617B69F0
:1037100023F0A0037B61BB681B017A6913437B61C3
:10372000FB683A699A61FB687A691A6200BF1C37C4
:10373000BD4680BC704780B485B000AF786039600A
:103740007B689B68FB60FB6823F07003FB603A6852
:10375000FB68134343F00703FB607B68FA689A60D9
:1037600000BF1437BD4680BC704780B487B000AF3F
:10377000F860B9607A603B60FB689B687B617B693D
:1037800023F47F437B613B681A027B681A43BB6862
:1037900013437A6913437B61FB687A699A6000BFBF
:1037A0001C37BD4680BC704780B485B000AF7860E0
:1037B00039607B6893F83C30012B01D1022346E04D
:1037C0007B68012283F83C207B68022283F83D203D
:1037D0007B681B685B68FB607B681B689B68BB60E1
:1037E000FB6823F07003FB603B681B68FA681343B7
:1037F000FB607B681B68FA685A607B681B68164A26
:1038000093420ED07B681B68B3F1804F09D07B6870
:103810001B68124A934204D07B681B68104A93428B
:103820000CD1BB6823F08003BB603B685B68BA685F
:103830001343BB607B681B68BA689A607B6801228F
:1038400083F83D207B68002283F83C200023184643
:103850001437BD4680BC7047002C01400004004076
:103860000008004080B483B000AF786000BF0C3720
:10387000BD4680BC704780B483B000AF786000BFA5
:103880000C37BD4680BC704780B582B000AF786011
:103890007B68002B01D1012342E07B6893F8413023
:1038A000DBB2002B06D17B68002283F840207868C9
:1038B000FEF7A2F97B68242283F841207B681B680D
:1038C000DA687B681B6822F40052DA60786800F0DE
:1038D00071F97B681B681A697B681B6822F4904247
:1038E0001A617B681B685A697B681B6822F02A0290
:1038F0005A617B681B68DA687B681B6842F4005277
:10390000DA607B6800225A647B68202283F84120B9
:103910007B68202283F842207B6800225A630023C0
:1039200018460837BD4680BD80B58AB002AFF86042
:10393000B9603B601346FB8000237B61FB6893F812
:103940004130DBB2202B75D1BB68002B02D0FB8845
:10395000002B01D101236EE0FB6800225A64FB6852
:10396000212283F84120FEF70FFA7861FB68FA887C
:103970009A84FB68FA88DA84FB689B68B3F5805FF9
:1039800008D1FB681B69002B04D10023FB61BB68D5
:10399000BB6103E0BB68FB610023BB612EE03B68B9
:1039A00000937B6900228021F86800F048F8034604
:1039B000002B05D0FB68202283F8412003233AE046
:1039C000FB69002B0BD1BB691B881A46FB681B687F
:1039D000C2F308025A60BB690233BB6107E0FB69AE
:1039E0001A78FB681B685A60FB690133FB61FB684E
:1039F000DB8C9BB2013B9AB2FB68DA84FB68DB8C00
:103A00009BB2002BCBD13B6800937B690022402105
:103A1000F86800F014F80346002B05D0FB6820225C
:103A200083F84120032306E0FB68202283F841202D
:103A3000002300E0022318462037BD4680BD80B534
:103A400086B000AFF860B9603B601346FB713BE0A5
:103A50003B6AB3F1FF3F37D0FEF796F902463B6869
:103A6000D31A3A6A9A4202D33B6A002B01D103234C
:103A70003AE0FB681B68DB6803F00403002B23D0EB
:103A8000BB68802B20D0BB68402B1DD0FB681B6817
:103A90001B6803F00803082B16D100237B61FB6829
:103AA0001B681B687B61FB681B685B687B617B69CB
:103AB000F86800F01DF8FB6808225A64FB680022D1
:103AC00083F8402001230FE0FB681B681A68BB687D
:103AD0001340BA689A420CBF01230023DBB21A4696
:103AE000FB799A42B4D0002318461837BD4680BDF2
:103AF00080B495B000AF78607B681B680C337B6343
:103B00007B6B53E8003F3B633B6B23F49073FB6498
:103B10007B681B680C33FA6C3A64FB63F96B3A6C94
:103B200041E80023BB63BB6B002BE5D17B681B68BE
:103B300014333B623B6A53E8003FFB61FB6923F0AF
:103B40000103BB647B681B681433BA6CFA62BB6206
:103B5000B96AFA6A41E800237B627B6A002BE5D1EF
:103B60007B681B6B012B19D17B681B680C33FB60D6
:103B7000FB6853E8003FBB60BB6823F010037B6425
:103B80007B681B680C337A6CBA617B617969BA69AE
:103B900041E800233B613B69002BE5D17B68202293
:103BA00083F842207B6800221A6300BF5437BD4669
:103BB00080BC704780B584B000AF78607B681B68BC
:103BC0001B6923F440517B68DA687B681B680A43F1
:103BD0001A617B689A687B681B691A437B685B691A
:103BE0001343BB607B681B68DB6823F4B05323F08E
:103BF0000C037A681268B9680B43D3607B681B6852
:103C00005B6923F440717B689A697B681B680A438F
:103C10005A617B681B682C4A934203D1FEF782FFEE
:103C2000F86002E0FEF76AFFF860FA6813469B004E
:103C300013449A001A447B685B689B00B2FBF3F361
:103C4000224AA2FB03235B091901FA6813469B0071
:103C500013449A001A447B685B689B00B2FBF3F242
:103C60001A4BA3FB02035B09642000FB03F3D31A86
:103C70001B013233154AA2FB03235B0903F0F00357
:103C80001944FA6813469B0013449A001A447B684F
:103C90005B689B00B2FBF3F20C4BA3FB02035B09D6
:103CA000642000FB03F3D31A1B013233074AA2FB43
:103CB00003235B0903F00F027B681B680A449A60C8
:103CC00000BF1037BD4680BD003801401F85EB5155
:103CD000014B1868704700BF0C00002070B500262B
:103CE0000C4D0D4C641BA410A64209D104F0DEFC5F
:103CF00000260A4D0A4C641BA410A64205D170BDD3
:103D000055F8043B98470136EEE755F8043B9847D1
:103D10000136F2E7EC8B0008EC8B0008EC8B000816
:103D2000F08B000803460244934200D1704703F829
:103D3000011BF9E7002B2DE9F0471F46BBBF03F13C
:103D400000431F4600232D2388B01446129A109D6D
:103D50001370149BDDF84CA023F02008B8F1460F37
:103D600005D0B8F1450F00D10135022300E003234F
:103D700007AA049206AACDE902A2CDE9003522469F
:103D80003B4601F0D1FEB8F1470F064602D1119B28
:103D9000DB0722D5B8F1460F06EB050910D13378C1
:103DA000302B0AD10022002320463946FCF7FCFDC7
:103DB00018B9C5F10105CAF80050DAF80030994485
:103DC0000022002320463946FCF7EEFD08B1CDF86D
:103DD0001C903022079B4B4507D33046079B159A12
:103DE0009B1B136008B0BDE8F087591C07911A703F
:103DF000F0E70346F7B5002903F8022BB6BF2D22E2
:103E00002B224942092942702BDD0DF10704A446FB
:103E10000A2791FBF7F60A46A64607FB1615632A02
:103E200005F13005314604F1FF340EF8015CF0DC99
:103E30003031AEF1020504F8011C2946441C6145ED
:103E40000AD30DF10902A2EB0E02654588BF0022DC
:103E50001344181A03B0F0BD11F8012B04F8012F18
:103E6000EDE7302330318370C170031DF1E70000AE
:103E70002DE9F04F91B00C46DDF8688016461F46DC
:103E8000054603F059F9036818460993FCF760F9F1
:103E900000230E93D8F800300A90073323F007036D
:103EA00003F1080294F81890D4F800B0C8F8002084
:103EB000D3E90023C4E91223D4E9128A2AF000438B
:103EC0000B934FF0FF3240469C4B0B99FCF79EFD45
:103ED00070BB4FF0FF324046984B0B99FCF778FDD2
:103EE00030BB0022002340465146FCF767FD10B16D
:103EF0002D2384F84330924B9248B9F1470F94BF79
:103F00009846804603234FF0000A23612BF00403F8
:103F1000236033462146284600970FAA00F0D4F9C3
:103F2000013040F090804FF0FF3011B0BDE8F08FCD
:103F30004246534640465146FCF768FD48B1BAF147
:103F4000000FB8BF2D238048B8BF84F843307F4BA3
:103F5000D3E7636809F0DF015A1C42D1062363608E
:103F6000002206920EAACDE904920DAA4BF48063BA
:103F700003920DF13302CDE90132236063684246BA
:103F80000093284653460B91FFF7D4FE0B998046C9
:103F900047290D9908D1C81C02DB6368994240DDAE
:103FA000A9F102095FFA89F9B9F1650F1FD84A46EC
:103FB000013904F150000D91FFF71BFF0E9A824664
:103FC0001318012A236102DC2268D20701D50133CC
:103FD00023619DF83330002B9BD02D2384F8433090
:103FE00097E74729BCD1002BBAD10123B7E7B9F134
:103FF000660F18D1002963680BDD216113B92268AF
:10400000D00702D501330B4423614FF0000AA165AC
:10401000DFE713B92268D20701D50233F4E70123A1
:10402000F2E74FF067090E9B994205DB2368216197
:10403000D807EAD54B1CE7E70029CCBF0122C1F124
:1040400002021344E0E723685A0507D42369424675
:1040500031462846B84701302BD164E7B9F1650FE6
:1040600040F2DD80D4E9120100220023FCF79CFC21
:10407000002833D0012331462846354AB84701305D
:104080003FF451AFDDE90D239A4202DB2368D807E4
:104090000FD5DDE9092331462846B84701303FF402
:1040A00042AF4FF0000804F11A090E9B013B434553
:1040B00009DC23689B0700F10281E0680F9B9842AE
:1040C000B8BF184631E701234A4631462846B8476B
:1040D00001303FF428AF08F10108E6E70D9B002B03
:1040E00038DC012331462846194AB84701303FF4ED
:1040F0001AAFDDE90D23134302D12368D907D8D5C0
:10410000DDE9092331462846B84701303FF40BAFBB
:104110004FF0000904F11A0A0D9B5B424B4501DC8C
:104120000E9B94E70123524631462846B84701309A
:104130003FF4F9AE09F10109EEE700BFFFFFEF7FA1
:104140004487000848870008508700084C8700080B
:10415000548700080E9AA36D9A42A8BF1A46002AF7
:10416000914637DC4FF0000B29EAE97904F11A0295
:10417000D4F858A0AAEB09035B4533DCDDE90D2335
:104180009A423BDB2368DA0738D40E9B0D99A3EBE8
:104190000A02A3EB01099145A8BF9146B9F1000FAE
:1041A00034DC4FF0000829EAE97904F11A0ADDE964
:1041B0000D239B1AA3EB090343457FF77AAF012335
:1041C000524631462846B84701303FF4ACAE08F1BC
:1041D0000108ECE71346314642462846B84701300D
:1041E000C0D1A0E60123314628460B92B8470130E2
:1041F0003FF499AE0B9A0BF1010BB9E73146DDE9BB
:1042000009232846B8470130BFD18CE64B463146DA
:10421000284608EB0A02B8470130C2D183E60E9A5D
:10422000012A01DCDB0737D5012342463146284607
:10423000B84701303FF477AEDDE90923314628461F
:10424000B84701303FF46FAED4E9120100220023D9
:10425000FCF7AAFBD8B90E9B08F10102013B3146DD
:104260002846B84701300ED15DE601234A46314663
:104270002846B84701303FF456AE08F101080E9BBE
:10428000013B4345F1DC534604F15002E0E64FF0B8
:10429000000804F11A09F2E701234246DFE701238F
:1042A0004A4631462846B84701303FF43CAE08F153
:1042B0000108E3680F995B1A4345F0DCFDE64FF017
:1042C000000804F11909F4E72DE9F047164699466C
:1042D0008A680B6907469342B8BF1346336091F86A
:1042E00043200C46DDF820800AB101333360236897
:1042F000990642BF336802333360256815F006051E
:1043000006D104F1190AE36832689B1AAB4228DC33
:1043100094F84320131E226818BF012392062DD45F
:104320004946384604F14302C047013020D0236893
:10433000E56803F00603042B18BF002532684FF030
:104340000006A36808BFAD1A226908BF25EAE57513
:104350009342C4BF9B1AED181A34B5421AD10020FB
:1043600008E00123524649463846C047013003D190
:104370004FF0FF30BDE8F0870135C4E73020E11889
:1043800081F843005A1C94F845102244023382F805
:104390004310C5E70123224649463846C04701304D
:1043A000E6D00136D9E700002DE9FF470F7E9146A0
:1043B000782F80460C469A460C9D01F1430207D89F
:1043C000622F0AD8002F00F0D980582F00F0A48067
:1043D00004F1420584F842703AE0A7F16303152B1B
:1043E000F6D801A151F823F04144000855440008D3
:1043F000D1430008D1430008D1430008D14300084D
:1044000055440008D1430008D1430008D1430008B7
:10441000D14300086345000885440008454500086D
:10442000D1430008D143000885450008D143000866
:1044300085440008D1430008D14300084D450008D9
:104440002B681A1D1B682A6004F1420584F842306B
:104450000123A4E020682968060601F104030AD5B7
:104460000E682B60002E03DA2D23764284F8433049
:104470000A235E4819E00E6810F0400F2B6018BF49
:1044800036B2EFE72B682068191D2960010601D5B7
:104490001E6802E04606FBD51E886F2F0CBF08235E
:1044A0000A235248002184F843106568002DA8BFF4
:1044B0002168A560A4BF21F0040121600EB9002D80
:1044C0004DD01546B6FBF3F103FB1167C75D05F848
:1044D000017D3746BB420E46F4D9082B0BD1236829
:1044E000DE0708D5236961689942DEBF302305F8ED
:1044F000013C05F1FF35521B22614B4621464046E7
:10450000CDF800A003AAFFF7DFFE01304CD14FF039
:10451000FF3004B0BDE8F087344881F84570296861
:10452000236851F8046B29601D0614D5DF0744BFCA
:1045300043F0200323601EB9236823F02003236087
:104540001023AFE7236843F0200323607823284833
:1045500084F84530E3E7590648BFB6B2E6E71546AA
:10456000BBE72B682668181D6169286035061B6843
:1045700001D5196002E07006FBD5198000231546AD
:104580002361BAE72B6800211A1D2A601D68626842
:10459000284602F057FE08B1401B60606368236143
:1045A000002384F84330A8E72A4649464046236959
:1045B000D0470130ABD023689B0713D4E068039B3E
:1045C0009842B8BF1846A4E7012332464946404600
:1045D000D04701309BD00135E36803995B1AAB42A9
:1045E000F2DCEBE7002504F11906F5E75687000831
:1045F000678700082DE9F04F87B003938B68174653
:104600005A1EB2F5AE7F85BF6FF4AE755B190023FD
:10461000029388BF40F25D138B464FF000058CBFBC
:104620008B6002930B68804643F4F0634BF81C3BAD
:104630000C465E46AA46A946CDE904550195A268F6
:1046400052B13B681B784E2B64D8402B3CD8A3F169
:104650002B01C8B20E283AD9B9F1000F03D0236854
:1046600023F4807323600AF1FF3ABAF1010F00F2DC
:1046700013815E4500F205810125284607B0BDE89B
:10468000F08FA3F161020D2AE6D801A151F822F0C2
:10469000CF47000859460008594600085946000807
:1046A0002F480008074800085946000859460008E6
:1046B000DD470008594600085946000859460008D9
:1046C0005946000895470008A3F14102DBE70E298F
:1046D000C2D801A050F821F08747000859460008C9
:1046E000874700081B48000859460008354700085E
:1046F00071470008714700087147000871470008BA
:1047000071470008714700087147000871470008A9
:10471000714700086E2B09D8602BB2D8542B77D084
:10472000592B99D1072D97D1082529E0742B6FD0EB
:10473000792BF6E72168C8051AD5029B21F0800184
:10474000216009F101091BB1013B01320293A26012
:10475000A368013BA3602369013323617B68013BAC
:10476000002B7B6040F384803B6801333B6066E74D
:104770001AEB050F7FF470AF226822F4C07222603A
:1047800006F8013BE4E7226810067FF565AF22F0EA
:104790008002F4E7BAF1000F0ED1B9F1000F0ED18B
:1047A000226802F4E061B1F5E06F08D122F4F06212
:1047B0004FF0010A2260E3E7BAF1020F55D0012D54
:1047C00002D0042D7FF448AF0135EDB2D8E7BAF13D
:1047D000010F7FF441AF4FF0020AD1E77DB9B9F183
:1047E000000F7FF43CAF226802F4E061B1F5E06FA6
:1047F0007FF439AF22F4F06201252260C0E7032D77
:10480000E2D0052DDEE7022D7FF426AF0325B7E7C2
:10481000062D7FF421AF0725B2E7226891057FF5C9
:104820001BAF22F420722260CDF80490A8E7226822
:1048300002F4A061B1F5806F06D050057FF50CAF92
:10484000B9F1000F3FF40FAF910558BF019922F461
:10485000F06258BFA9EB010142F4C0724FF00009A9
:1048600058BFCDE9041622608AE74FF0030A87E7B4
:1048700039464046D4F88031984700283FF4DFAEEF
:10488000EAE6D4F87C313A46404616F8011D9847CE
:104890002369013B2361ECE66B1E062B25D8022D14
:1048A00036D85E457FF6E8AED4F87C313A464046CD
:1048B00016F8011D98472369013B2361F1E702982F
:1048C000D4F87C3110F8011D3A46029040469847D2
:1048D0002369013B23610AF1FF3A5FFA8AFABAF1D0
:1048E000020FECD1033DEDB2761B2368DA052FD51C
:1048F0005B0510D55E457FF6BFAED4F87C313A46F5
:10490000404616F8011D98472369013B2361F1E7F2
:10491000AA460296DFE716F8011C2369652903F110
:10492000FF3306F1FF3523610CD045290AD0D4F8B6
:104930007C313A4640469847236916F8021C013BF1
:10494000B51E23613A464046D4F87C3198472E463E
:10495000256815F0100555D13570236803F4C06340
:10496000B3F5806F1BD1019B4B45A3EB090223D10B
:1049700000225946404600F007FF2268039B12F0D0
:10498000020F06460F461B6821D01A1D03990A60C4
:104990001B68C3E90067E3680133E3606DE6049BCD
:1049A000002BE5D005990A232A464046013100F044
:1049B0006DFF049B059EC21A04F26F139E4228BF2E
:1049C00004F5B7763046104900F0B4F8D0E712F09D
:1049D000040F03F10402D9D1DDF80CC0CCF800209B
:1049E000D3F8008002460B46FCF710F828B10748C0
:1049F00000F09CF8C8F80000CDE730463946FCF7D7
:104A000063F8F7E7002538E678870008E88B0008A8
:104A10000FB40A4B13B51C6824B1A36913B920461F
:104A200001F086FF05AB2046049AA168019303F0CC
:104A300051FB02B0BDE8104004B070470C000020EC
:104A400070B50E46054618B183690BB901F070FFC9
:104A5000AB69AC6813B9284601F06AFF2C4B9C4245
:104A600020D16C68636EDB0705D4A389980502D456
:104A7000A06D02F066FBA38919071DD52369DBB180
:104A8000013EA36816F8011F013BA36039BB002B50
:104A900038DA22460A21284600F0FAFE013011D009
:104AA0000A2511E01B4B9C4201D1AC68DAE71A4B96
:104AB0009C4208BFEC68D5E72146284600F03AFF43
:104AC0000028DDD04FF0FF35636EDA0705D4A389E7
:104AD0009B0502D4A06D02F035FB284670BD002B6B
:104AE00004DAA2699A4206DC0A2904D023685A1C17
:104AF00022601970C5E72246284600F0C9FE013041
:104B0000BFD1DFE70A2523685A1C22601D70DBE74E
:104B100084890008A489000864890008024B0146C2
:104B20001868FFF78DBF00BF0C00002000487047D9
:104B30000000C07F0EB46FF0004100B59CB01DAB0B
:104B400002900690079104910848094953F8042BF4
:104B50000591006802A9019303F094F90022029BD9
:104B60001A701CB05DF804EB03B070470C00002015
:104B70000802FFFF2DE9F0410F46904602F0EEFEDD
:104B800004460D46B8F1000F11D0C7F30A53C3F124
:104B90006B03002B0BDD00241B0503F17F5505F58E
:104BA000401522462B46FBF797FC04460D4620464F
:104BB0002946BDE8F08100002DE9F04F9B46002317
:104BC0009FB01A939E4B82461F680E463846159238
:104BD000FBF7BEFA4FF0000804464FF000091996A3
:104BE000199B1A782B2A4CD03AD80D2A33D8082A88
:104BF00033D8002A3DD000230A93199D2B78302BFF
:104C000040F0AA806B7803F0DF03582B66D10A9B33
:104C1000504601931AAB00938A4ACDF808B01BABFB
:104C200019A901F08BFF10F00706044605D0062EE7
:104C300029D10023013519950A93159B002B40F0CB
:104C40008A850A9BD3B1424609F1004310461946B2
:104C50001FB0BDE8F08F202ACDD101331993BFE7F3
:104C60002D2AC8D101220A925A1C19925B78002B76
:104C7000C3D1159B1996002B40F06B8542464B46DD
:104C8000E4E70022EFE71A9A3AB135211CA802F0B6
:104C900069FF50461A9902F031FB013E042E06D8F6
:104CA000DFE806F00A0314170A00DDE91C89210772
:104CB000C3D549F00049C0E71B9ADDE91C8302F225
:104CC000334223F4801343EA0259F0E7DFF8789186
:104CD000EDE76FF000494FF0FF38E8E7199B5A1CE9
:104CE00019925B78302BF9D0002BA6D001230793C3
:104CF000199B0A22089300239B46CDE90533199896
:104D00000578A5F13003D9B2092927D922463946B9
:104D100003F069FB002833D000202A465C46034696
:104D20000490652A01D0452A14D11CB9079A024380
:104D30009FD00024199E721C199272782B2A79D068
:104D40002D2A00F083800027A2F13001092940F2CA
:104D50008380199600259FE00023C8E7BBF1080F68
:104D6000D5BF0699059902FB013302FB013300F11F
:104D70000100D4BF069305930BF1010B1990BEE718
:104D8000199B1A1919921A5DBBF1000F36D05C46B7
:104D90000490A2F13003092B12D90123C1E7199B1A
:104DA00001305A1C19925A78302AF8D0A2F13103F6
:104DB000082B00F2D584049000200446199B089328
:104DC000303A00F1010313D00499051919440491F4
:104DD00023460A21AB4213D12318082B04F1010406
:104DE00004441BDC0A23069903FB012306930023DA
:104DF000199A1846511C19915278CAE75846D3E7B8
:104E0000082B04DC069F4F4306970133E2E75F1C43
:104E1000102FDEBF059F4F430597F6E7102CDFBF2D
:104E20000A23059903FB01230593E0E7002304937C
:104E300001237BE70027B21C1992B27884E700BFF8
:104E40002C8A0008808700080000F07F0127F2E725
:104E5000199A511C19915278302AF9D0A2F13101D6
:104E600008293FF677AF4FF00A0EA2F1300C199ADD
:104E70000992199A511C19915278A2F13005092D05
:104E800035D9099D491B082944F61F6502DC654593
:104E9000A8BF654607B16D42002C4CD1079901436C
:104EA0007FF4CBAE002B7FF4E4AE692A26D023DC5E
:104EB000492A23D04E2A7FF4DCAE9D4919A802F07E
:104EC0008BF800283FF4D5AE199B1B78282B2CD1EA
:104ED00098491CAA19A802F093F8052825D11D9B12
:104EE000DDF8708043F0FF4949F4E009A5E60EFBC8
:104EF0000C2CACF1300CBCE76E2ADCE78E4919A80B
:104F000002F06AF800283FF4B4AE199B8B49013BCC
:104F100019A8199302F060F810B9199B013319937D
:104F20004FF00008DFF8189287E6864803F002FA8F
:104F30008046894681E6049BBBF1000F08BFA3466B
:104F4000EB1A102C069826460793A8BF1026FBF7ED
:104F500049FA092C8046894613DD7B4B03EBC603D7
:104F600053E91223FBF7B8FA804605988946FBF708
:104F700039FA02460B4640464946FBF7F7F88046A9
:104F800089460F2C36DC079B002B3FF456AE22DD02
:104F9000162B09DC6C49424601EBC3014B46D1E9B3
:104FA0000001FBF799FAC3E7079AC4F1250393427E
:104FB00020DB654DC4F10F0405EBC4014246D1E985
:104FC00000014B46FBF788FA079B1C1B05EBC40549
:104FD000D5E90023E5E7079B16330BDB049B40462E
:104FE0005D1B594B494603EBC505D5E90023FBF78B
:104FF0009DFB9DE7079BA61B1E44002E74DD16F04B
:105000000F030AD05049424601EBC301D1E9000128
:105010004B46FBF761FA8046894636F00F0652D0C0
:10502000B6F59A7F27DD4FF0000BCDF810B0CDF824
:1050300020B0CDF818B022234FF00008DFF800911F
:10504000CAF80030089B002B3FF4F7AD50461A9980
:1050500002F054F95046069902F050F9504604996E
:1050600002F04CF95046089902F048F9594650466A
:1050700002F044F9E1E5354B4046059300234946EB
:105080001F463611012E21DC0BB1804689462F4B7D
:10509000A9F1547903EBC7074246D7E900014B4613
:1050A000FBF71AFA264B0A460B40294980468B42E9
:1050B000B9D8A1F580118B4286BF4FF0FF38DFF8D9
:1050C000949002F15479002305937FE0F20705D50F
:1050D000059BD3E90023FBF7FFF90123059A01376C
:1050E000083276100592CDE7EDD0764216F00F0229
:1050F0000AD0154B404603EBC2034946D3E90023CF
:10510000FBF714FB804689463611DCD01F2E23DDC9
:105110004FF0000BCDF810B0CDF820B0CDF818B09E
:1051200022234FF000084FF00009CAF8003089E749
:10513000518700089487000849870008D488000830
:105140000000F07FE88B0008C88A0008A08A0008E9
:105150000000A07CFFFFEF7F16F0100318BF6A234A
:105160004046059349460023B04FF20704D5D7E9DE
:105170000023FBF7B1F90123761007F10807F4D1FA
:105180000BB180468946059BC3B1C9F30A52C2F1EF
:105190006B03002B494611DD1F2B40F32781342B75
:1051A000D8BF4FF0FF334FF00008CFBF4FF05C790E
:1051B000C2F14B0203FA02F202EA010900220023C3
:1051C00040464946FBF7F0FB0028A1D1069B5A4612
:1051D000009350462346089902F0F8F808900028FA
:1051E0003FF421AF049B4FF0000B5D1B079BCDF8F4
:1051F00010B0002BB4BF2B4600230E93079B23EA6D
:10520000E3731493089B5046596802F037F80690F0
:1052100000283FF410AF089B0C301A6903F10C0111
:105220000232920002F01CF81CAB01931BAB0093FE
:1052300042464B465046CDE90C8902F009FC1A90D3
:1052400000283FF4F8AE0121504602F057F903461A
:10525000049000283FF4EFAE1B9D1C9A002DABBFBD
:105260000E9B149BEE185C1B059BA8BF149CA5EB22
:10527000030515446E4B05F1FF35B8BF0E9E9D42E8
:10528000C2F1360280F2C4805B1B1F2B4FF0010776
:10529000A2EB030200F3B180002507FA03F30F939A
:1052A000B718059BBE4214441C443346A8BF3B4676
:1052B000A342A8BF2346002BC2BFFF1AE41AF61A66
:1052C0000E9B002B17DD1A465046049902F0D4F9C4
:1052D000049000283FF4AFAE01461A9A504602F0FF
:1052E00023F9099000283FF4A6AE50461A9902F01F
:1052F00005F8099B1A93002F00F38E80079B002B63
:1053000008DD5046149A069902F0B6F90690002876
:105310003FF491AE002C08DD22465046069902F07B
:1053200005FA069000283FF486AE002E08DD3246CE
:105330005046049902F0FAF9049000283FF47BAE3D
:105340005046069A1A9902F07DFA834600283FF4E7
:1053500072AE0024C3680499C4600B9302F056FA3D
:10536000A0426BDA0B9B53EA080340F09180C9F32B
:105370001303002B40F08C8029F000431B0D1B050C
:10538000B3F1D66F40F28480DBF814301BB9DBF840
:105390001030012B7CDD59460122504602F0C6F93F
:1053A0000499834602F032FA002871DD05994B46D4
:1053B000204A002900F08C8002EA0901B1F1D66F81
:1053C00000F38680B1F15C7F7FF7AAAE4046494684
:1053D000194B0022FBF780F80B46034308BF22233A
:1053E0008046894608BFCAF800302FE64FF0FF32EA
:1053F00002FA03F303EA0808E0E6C5F17F4505F584
:105400007F0505F57B45E23507FA05F50F9747E778
:10541000012300250F9343E73A4650461A9902F0BC
:1054200085F91A9000287FF469AF04E6A887000880
:1054300002FCFFFF0000F07F00005039CDF82490FF
:1054400065D10B9AC9F313035AB3994A93422BD1EE
:10545000059B414603B34A46964B1340B3F1D46FC4
:105460004FF0FF321BD81B0DC3F16B0302FA03F39D
:10547000994219D1904B099A9A4202D101313FF4D5
:10548000DAAD4FF000088B4B099A1A4002F58019EB
:10549000059B002B9AD1D9E54FF0FF33E8E713467F
:1054A000E6E753EA080381D0E5B1099B1D42EFD03E
:1054B0000B9B40464946059AC3B1FFF75BFB02468A
:1054C0000B46DDE90C01FAF751FE80468946DFE71D
:1054D0001340A3F580136FEA13594FF0FF386FEABA
:1054E0000959D5E70F9B13EA080FE0E7FFF742FBE6
:1054F00002460B46DDE90C01FAF736FE00220023D6
:1055000080468946FBF750FA0028C1D008E6584685
:10551000049902F0F9FA00224FF0804306460F4644
:10552000FBF756FA002870D00B9B002B42D00026C8
:10553000624F624D099B23F000431B0D1B050F9327
:105540000F9A5F4B9A4240F0C380099B4046A3F1FB
:105550005479494602F002FA02460B463046394673
:10556000FAF7BAFF42464B46FAF700FE0B4651499E
:10557000544A1940914280465DD90D9A4E4B9A4249
:1055800003D10C9B01333FF456AD4FF0FF38DFF8E9
:10559000289150461A9901F0B1FE5046069901F043
:1055A000ADFE5046049901F0A9FE5946504601F05F
:1055B000A5FE27E6B8F1000F19D1099BC3F3130329
:1055C000E3B90022304639463C4BFBF7F7F9C8B93E
:1055D0000022304639463C4BFAF77EFF04460D4622
:1055E00005F1004316941793DDE91667A2E7B8F1B9
:1055F000010F03D1099B002B3FF492AD002600243C
:10560000324F96E70B9C304DEAE72F4B0022304695
:105610003946FAF761FF0B9B04460D4633B901F199
:10562000004310901193DDE9106783E702460B46B3
:10563000CDE91023F7E703F15479059B002BA8D19E
:1056400029F000430F9A1B0D1B059A42A1D1204659
:105650002946FBF75DFDFAF711FF02460B4620468F
:105660002946FAF781FD0B9AC9F3130343EA0803AD
:10567000134304460D4666D009A3D3E90023FBF784
:105680009DF900287FF4E2AC07A3D3E9002320466C
:105690002946FBF7B1F900283FF47BAFD6E400BF01
:1056A0009535A094FFFFDF3F35E5AF350000E03FC3
:1056B000FFFF0F000000F07FFFFFEF7F0000F03FD3
:1056C0000000E07FFFFF9F7C0000E03F0000F0BF94
:1056D000059B13B30F9BB3F1D46F1ED826A3D3E958
:1056E000002320462946FBF773F990B1294620464E
:1056F000FBF7CAF9012838BF0120FAF773FE0B9BAC
:1057000004460D46D3B901F1004312901393DDE92D
:1057100012670F9A07F1D6639F1ADDE90C0102F0B8
:105720001DF902460B4630463946FAF7D5FEDDE94B
:105730000C23FAF71BFD804689467EE702460B469E
:10574000CDE91223E3E70EA3D3E90023FBF736F9F3
:10575000A1E700230A93199B159A1360FFF771BA0A
:10576000652A3FF463AB452A3FF460AB0123FFF7A2
:1057700095BB00BFAFF300800000C0FFFFFFDF411B
:105780009535A094FFFFCF3F014BFFF715BA00BF3F
:1057900074000020012B2DE9F047804601D0242B16
:1057A00006D9FEF795FA162303600020BDE8F087BE
:1057B0000D46354F284615F8014BE65D16F00806F4
:1057C000F8D12D2C2FD101262C78851C002B57D0F9
:1057D000102B09D1302C07D1287800F0DF00582891
:1057E00049D110236C780235002706F1004E0EF1E6
:1057F000FF3EBEFBF3F9384603FB19EAA4F1300C77
:10580000BCF1090F14D86446A34222DD002F1DDB32
:1058100081451BD301D1A24518DB012700FB0340C2
:1058200015F8014BEAE72B2C04BF2C78851CCDE73B
:10583000A4F1410CBCF1190F01D8373CE4E7A4F105
:10584000610CBCF1190F04D8573CDDE74FF0FF376E
:10585000E6E7002F07DA22237046C8F80030002A56
:10586000A4D0691E05E006B14042002A9ED0002F58
:10587000F7D111609AE73024002BB5D10823B3E7A4
:10588000302CA9D00A23AFE7D1870008FFF782BFE9
:10589000F8B50E461446054618B183690BB901F0F8
:1058A00047F8214B9C422BD16C68A369A360A38964
:1058B0001A072FD523696BB323692068F6B2C01A83
:1058C00063693746834204DC2146284600F09CFF8A
:1058D00030BBA3680130013BA36023685A1C2260DF
:1058E0001E706369834204D0A389DB0706D50A2EA4
:1058F00004D12146284600F087FF88B93846F8BD14
:105900000A4B9C4201D1AC68CFE7094B9C4208BFCF
:10591000EC68CAE72146284600F00CF80028CBD0F6
:105920004FF0FF37EAE700BF84890008A489000828
:1059300064890008324B70B51D6806460C4625B1D7
:10594000AB6913B9284600F0F3FF2E4B9C420FD1F0
:105950006C68A389B4F90C2019072CD4DD0611D486
:105960000923336042F040034FF0FF30A3813EE053
:10597000254B9C4201D1AC68EBE7244B9C4208BF0D
:10598000EC68E6E7580712D5616B41B104F14403B6
:10599000994202D0304602F03DF900236363A389A7
:1059A00023F02403A3810023636023692360A38978
:1059B00043F00803A38123694BB9A38903F420733F
:1059C000B3F5007F03D02146304601F0E1FBA0890A
:1059D000B4F90C2010F001030AD00023A36063691E
:1059E0005B42A361236943B910F08000BAD170BD56
:1059F000810758BF6369A360F4E70020F7E700BFA1
:105A00000C00002084890008A4890008648900082B
:105A10002DE9F74F03690C690746A342C0F2828063
:105A2000013C00F1140501F1140805EB8403019316
:105A300058F8243055F8242001339A42B2FBF3F68B
:105A40004FEA840B08EB840931D34FF0000E404637
:105A5000AC46F24650F8042B93B206FB03E3120C5B
:105A60004FEA134E9BB206FB02E2AAEB0303DCF8FB
:105A700000A04FEA124E1FFA8AFA5344DCF800A045
:105A800092B2C2EB1A4202EB23429BB243EA0243B8
:105A900081454FEA224A4CF8043BDBD255F80B30E3
:105AA0002BB9019B043B9D421A462FD33C613846DB
:105AB00001F0ACFE002825DB28464FF0000C013633
:105AC00058F8041BD0F800E08BB2ACEB03031FFACC
:105AD0008EF213440A0CC2EB1E4202EB23429BB22D
